:100000000C942E010C9459040C9480040C94560109
:100010000C9456010C9456010C9456010C94560104
:100020000C9456010C9456010C9456010C945601F4
:100030000C9456010C9456010C9456010C945601E4
:100040000C94A7040C9456010C948A020C94C202DE
:100050000C9456010C9456010C9456010C945601C4
:100060000C9496060C945601A207A607A607A607AD
:10007000A607A607A607A607B606A607A607A60709
:10008000A607A607A607A607B606A607A607A607F9
:10009000A607A607A607A607BE06A607A607A607E1
:1000A000A607A607A607A607E406A607A607A607AB
:1000B000A607A607A607A607BE06A607A607A607C1
:1000C000A607A607A607A607EA06A607A607A60785
:1000D000A607A607A607A607F006A607A607A6076F
:1000E000A607A607A607A6070207A607A607A6074C
:1000F000A607A607A607A6072C07A607A607A60712
:10010000A607A607A607A607F606A607A607A60738
:10011000A607A607A607A6071007A607A607A6070D
:10012000A607A607A607A6072F07A607A607A607DE
:10013000A607A607A607A6072F07A607A607A607CE
:10014000A607A607A607A6072F07A607A607A607BE
:10015000A607A607A607A6072F07A607A607A607AE
:10016000A607A607A607A6073807A607A607A60795
:10017000A607A607A607A6076907A607A607A60754
:10018000A607A607A607A6073807A607A607A60775
:10019000A607A607A607A6076907A607A607A60734
:1001A000A607A607A607A6075007A607A607A6073D
:1001B000A607A607A607A6076D07A607A607A60710
:1001C000A607A607A607A6076D07A607A607A60700
:1001D000A607A607A607A6078207A607A607A607DB
:1001E000A607A607A607A6079C07A607A607A607B1
:1001F000A607A607A607A6079C070000000800029E
:1002000001000003040700000000000000000102DC
:100210000408102040800102040810200102040894
:100220001020040404040404040402020202020272
:10023000030303030303000000002300260029003A
:1002400000000000250028002B0000000000240012
:1002500027002A00E80258034606540811241FBE4E
:10026000CFEFD8E0DEBFCDBF11E0A0E0B1E0E6E522
:10027000F1E102C005900D92A634B107D9F722E052
:10028000A6E4B1E001C01D92A23BB207E1F711E084
:10029000CEE2D1E004C02197FE010E94A308CA3239
:1002A000D107C9F70E9459080C94A9080C940000C2
:1002B000FC01918D228D892F90E0805C9F4F821BE5
:1002C00091098F7399270895FC01918D828D98175C
:1002D00031F0828DE80FF11D858D90E008958FEF4C
:1002E0009FEF0895FC01918D828D981761F0828DAA
:1002F000DF01A80FB11D5D968C91928D9F5F9F735A
:10030000928F90E008958FEF9FEF0895FC01848D08
:10031000DF01A80FB11DA35ABF4F8C91248D30E08F
:100320002F5F3F4F2F733078332334F4215031093E
:10033000206C3F6F2F5F3F4F248FA689B7898C9326
:10034000A089B1898C9180648C93938D848D98134E
:1003500006C00288F389E02D80818F7D8083089517
:10036000CF93DF93EC01888D81110FC018C00FB6B9
:1003700007FC0DC0908195FF0AC0A889B9898C91AE
:1003800085FF05C0CE010E948601EA89FB89908124
:1003900095FDEDCFA889B9898C9186FFE8CFDF91D3
:1003A000CF9108950F931F93CF93DF93FC0181E0CA
:1003B000808F938D848D981322C0A089B1898C91F0
:1003C00085FD2FC01CC00FB607FC08C0E889F9895D
:1003D000808185FF03C0CE010E9486019C8D091794
:1003E00091F38B8DFE01E80FF11DE35AFF4F10834F
:1003F0000B8FEA89FB898081806280831BC0238DFB
:1004000030E02F5F3F4F2F733078332334F4215087
:100410003109206C3F6F2F5F3F4F162FEF01022FE6
:10042000DDCFA689B7896C930088F189E02D8081A2
:100430008064808381E090E0DF91CF911F910F91E4
:100440000895BF92CF92DF92EF92FF920F931F9386
:10045000CF93DF93EC016A017B01B22EE889F98921
:1004600082E080834115514E61057105B1F060E075
:1004700079E08DE390E0A70196010E94810889014F
:100480009A010150110921093109369527951795CF
:100490000795011580E11807A8F0E889F98910820D
:1004A00060E874E88EE190E0A70196010E9481085F
:1004B000DA01C9010197A109B109B695A7959795E8
:1004C00087958C01EC85FD851083EE85FF85008383
:1004D000188EEC89FD89B082EA89FB898081806170
:1004E0008083EA89FB89808188608083EA89FB892F
:1004F000808180688083EA89FB8980818F7D808309
:10050000DF91CF911F910F91FF90EF90DF90CF90EF
:10051000BF9008951F920F920FB60F9211242F9340
:100520008F939F93AF93BF93EF93FF93E091560107
:10053000F0915701808182FD14C0E6E4F1E0A689C4
:10054000B7892C91818D8F5F8F73928D891771F090
:10055000DF01E18DF0E0EA5BFE4F258F59968C9329
:1005600005C0E0915C01F0915D018081FF91EF9108
:10057000BF91AF919F918F912F910F900FBE0F90D0
:100580001F9018951F920F920FB60F9211242F9360
:100590003F934F935F936F937F938F939F93AF930B
:1005A000BF93EF93FF9386E491E00E948601FF9151
:1005B000EF91BF91AF919F918F917F916F915F91DB
:1005C0004F913F912F910F900FBE0F901F90189554
:1005D000E6E4F1E01382128288EE93E0A0E0B0E05E
:1005E00084839583A683B78388E091E09183808399
:1005F00085EC90E09587848784EC90E097878687E8
:1006000080EC90E0918B808B81EC90E0938B828BDF
:1006100082EC90E0958B848B86EC90E0978B868BB8
:10062000118E128E138E148E089508958F929F92BC
:10063000AF92BF92CF92DF92EF92FF920F931F93F0
:10064000CF93DF935C017B014C0182E0880E911C0B
:100650006501E5E0CE0ED11C00E010E0F4016191EF
:100660004F014AE050E0C7010E945004EC016EE2E5
:10067000C7010E94A8038C0F9D1F080F191F8C141F
:100680009D0461F74AE050E0F5016581C7010E94D1
:100690005004800F911FDF91CF911F910F91FF9018
:1006A000EF90DF90CF90BF90AF909F908F90089584
:1006B000E3EEF1E088E191E091838083128213827E
:1006C000148215820895CF92DF92EF92FF920F93DA
:1006D0001F93CF93DF9341155105C1F06A018C013F
:1006E000E62EF72EC0E0D0E0D7016D917D01D80154
:1006F000ED91FC910190F081E02DC8010995892BC5
:1007000039F02196CC16DD0679F702C0C0E0D0E0C2
:10071000CE01DF91CF911F910F91FF90EF90DF906D
:10072000CF9008956115710581F0FB0101900020C3
:10073000E9F73197AF01461B570BDC01ED91FC91B6
:100740000280F381E02D0995089580E090E00895FE
:10075000DC01ED91FC910190F081E02D0995089567
:10076000DC01ED91FC910280F381E02D42E050E04C
:100770006AE171E0099508950F931F93CF93DF937A
:10078000EC010E9492038C01CE010E94B003800F05
:10079000911FDF91CF911F910F9108954F925F921A
:1007A0006F927F929F92AF92BF92CF92DF92EF9221
:1007B000FF920F931F93CF93DF93CDB7DEB7A1972F
:1007C0000FB6F894DEBF0FBECDBF5C016A017B019E
:1007D000922E19A281E0821720F00F2EFAE09F2EB0
:1007E000F02D8E010F5D1F4F492C512C612C712C67
:1007F000C701B601A30192010E9481088C2D929E2F
:1008000080191124015011098A3010F4805D01C053
:10081000895CD8018C93C22ED32EE42EF52EC11400
:10082000D104E104F10421F70115110591F0F8015B
:1008300001900020E9F73197AF01401B510BD50122
:10084000ED91FC910280F381E02DB801C50109957D
:1008500002C080E090E0A1960FB6F894DEBF0FBE14
:10086000CDBFDF91CF911F910F91FF90EF90DF905F
:10087000CF90BF90AF909F907F906F905F904F9080
:1008800008952115310549F4DC01ED91FC910190A9
:10089000F081E02D642F099508950E94CE030895FC
:1008A0009A01462F50E060E070E00E9441040895F4
:1008B00008951F920F920FB60F9211242F933F931A
:1008C0004F935F936F937F938F939F93AF93BF9358
:1008D000EF93FF93E0910001F09101010995FF91E1
:1008E000EF91BF91AF919F918F917F916F915F91A8
:1008F0004F913F912F910F900FBE0F901F90189521
:100900001F920F920FB60F9211242F933F934F9384
:100910005F936F937F938F939F93AF93BF93EF9367
:10092000FF93E0910201F09103010995FF91EF918E
:10093000BF91AF919F918F917F916F915F914F91F7
:100940003F912F910F900FBE0F901F9018951F92FF
:100950000F920FB60F9211242F933F938F939F9373
:10096000AF93BF938091EA019091EB01A091EC01CC
:10097000B091ED013091E90123E0230F2D3720F4F0
:100980000196A11DB11D05C026E8230F0296A11DE9
:10099000B11D2093E9018093EA019093EB01A093AC
:1009A000EC01B093ED018091EE019091EF01A091E7
:1009B000F001B091F1010196A11DB11D8093EE01EE
:1009C0009093EF01A093F001B093F101BF91AF912B
:1009D0009F918F913F912F910F900FBE0F901F907D
:1009E00018953FB7F8948091EE019091EF01A09196
:1009F000F001B091F10126B5A89B05C02F3F19F079
:100A00000196A11DB11D3FBFBA2FA92F982F88278E
:100A1000820F911DA11DB11DBC01CD01660F771F75
:100A2000881F991F660F771F881F991F0895CF92FF
:100A3000DF92EF92FF92CF93DF936B017C010E94D4
:100A4000F104EB01C114D104E104F104A9F00E9406
:100A500015030E94F1046C1B7D0B683E734038F057
:100A600081E0C81AD108E108F108C851DC4FC1146F
:100A7000D104E104F10459F7DF91CF91FF90EF9099
:100A8000DF90CF900895789484B5826084BD84B55A
:100A9000816084BD85B5826085BD85B5816085BD79
:100AA000EEE6F0E0808181608083E1E8F0E0108292
:100AB000808182608083808181608083E0E8F0E0D3
:100AC000808181608083E1EBF0E0808184608083BD
:100AD000E0EBF0E0808181608083EAE7F0E08081F4
:100AE0008460808380818260808380818160808354
:100AF0008081806880831092C1000895833069F0FE
:100B000028F48130B1F08230C1F008958730C9F007
:100B10008830E9F0843001F506C0E0E8F0E080813B
:100B20008F7780830895E0E8F0E080818F7D808377
:100B3000089584B58F7784BD089584B58F7D84BD75
:100B40000895E0EBF0E080818F7780830895E0EBFB
:100B5000F0E080818F7D80830895CF93DF9390E0D4
:100B6000FC01E25FFD4F2491FC01EE5DFD4F84919D
:100B7000882379F190E0880F991FFC01E65BFD4F17
:100B8000A591B491FC01E05CFD4FC591D491611138
:100B90000CC09FB7F8948C91E22FE0958E238C9334
:100BA0002881E223E8839FBF14C0623061F49FB7BD
:100BB000F8943C91822F809583238C93E881E22BDB
:100BC000E8839FBF06C08FB7F894EC91E22BEC93BB
:100BD0008FBFDF91CF9108951F93CF93DF93282F7D
:100BE00030E0F901E650FE4F8491F901E25FFD4FDC
:100BF0001491F901EE5DFD4FC491CC23D1F0D62FB5
:100C000081110E947E05EC2FF0E0EE0FFF1FE05CEB
:100C1000FD4FA591B4918FB7F894D11106C09C9166
:100C2000E12FE095E923EC9303C0EC91E12BEC93E9
:100C30008FBFDF91CF911F910895CF93DF93282F1E
:100C400030E0F901E650FE4F8491F901E25FFD4F7B
:100C5000D491F901EE5DFD4FC491CC2391F0811147
:100C60000E947E05EC2FF0E0EE0FFF1FEA5CFD4FC7
:100C7000A591B491EC91ED2381E090E021F480E026
:100C800002C080E090E0DF91CF91089581E08093F1
:100C9000F2010895CF93DF93EC01862F6883498397
:100CA000642F0E94AD0588810E941D068A83DF9112
:100CB000CF910895FC0161E08281811160E062833F
:100CC00080810E94EC0508956132C8F42091600291
:100CD0002430B9F4609315026623A9F0FC01A7E162
:100CE000B2E06150262F30E02F5F3F4F280F391FB1
:100CF00091919D93E217F307D9F780E0089581E081
:100D0000089582E0089580E0089585ED8093BC0009
:100D1000ECEBF0E0808184FDFDCF1092600208953D
:100D200085EC8093BC001092600208951F920F9290
:100D30000FB60F9211242F933F934F935F936F93AE
:100D40007F938F939F93AF93BF93EF93FF93809184
:100D5000B900E82FE87F8E2F90E0893C910508F0DC
:100D6000F5C0FC01EC5CFF4F0C94A30880915F027E
:100D70008093BB0085EC8093BC00E8C09091380262
:100D800080913702981780F4E091380281E08E0F4D
:100D900080933802F0E0E75CFD4F80818093BB00D8
:100DA00085EC8093BC00D2C080915E02882319F04C
:100DB0000E948506CBC081E080935D0284EA809327
:100DC000BC0010926002C2C080E28093F3010E94D6
:100DD0008506BCC080E38093F3010E948506B6C0FF
:100DE00088E38093F3010E949006B0C0E09138023E
:100DF00081E08E0F809338028091BB00F0E0E75CC9
:100E0000FD4F80839091380280913702981720F42B
:100E100085EC8093BC009AC085E88093BC0096C0A6
:100E2000E091380281E08E0F809338028091BB0000
:100E3000F0E0E75CFD4F808380915E02882319F02B
:100E40000E94850683C081E080935D0284EA8093DE
:100E5000BC00109260027AC00E94850677C083E0D1
:100E6000809360021092F40185EC8093BC006EC008
:100E70008091F401803280F4E091F40181E08E0FE2
:100E80008093F4018091BB00F0E0EB50FE4F808333
:100E900085EC8093BC005AC085E88093BC0056C0A6
:100EA0000E9490068091F401803230F4E091F401C8
:100EB000F0E0EB50FE4F10826091F40170E0E091A1
:100EC0005902F0915A0285EF91E009951092F401D0
:100ED0003DC085E88093BC0039C084E08093600207
:100EE0001092160210921502E0915B02F0915C02E2
:100EF000099580911502811105C081E0809315024A
:100F000010921702E091160281E08E0F8093160274
:100F1000F0E0E95EFD4F80818093BB009091160266
:100F200080911502981720F485EC8093BC000EC0C8
:100F300085E88093BC000AC085EC8093BC001092C9
:100F4000600204C01092F3010E948506FF91EF91A8
:100F5000BF91AF919F918F917F916F915F914F91D1
:100F60003F912F910F900FBE0F901F901895809179
:100F7000900290E020919102821B91090895909136
:100F8000910280919002981750F4E92FF0E0EE560C
:100F9000FD4F208130E09F5F9093910202C02FEFC0
:100FA0003FEFC9010895E091910280919002E81706
:100FB00030F4F0E0EE56FD4F808190E008958FEF21
:100FC0009FEF08950895CF92DF92EF92FF920F93D3
:100FD0001F93CF93DF938C01CB016A0120916D02A7
:100FE0002223A1F041155105A1F0EB017B01E40E94
:100FF000F51E6991D801ED91FC910190F081E02DF1
:10100000C8010995CE15DF05A1F703C0642F0E9422
:101010006406C601DF91CF911F910F91FF90EF9071
:10102000DF90CF900895CF93DF931F92CDB7DEB7B7
:10103000FC01698390916D029923D9F090916E0221
:10104000903238F081E090E09383828380E090E0FA
:1010500017C080916F02E82FF0E0E059FD4F9981B1
:1010600090838F5F80936F0280936E0281E090E0A7
:1010700007C061E0CE0101960E94640681E090E025
:101080000F90DF91CF910895FC011382128288EEB8
:1010900093E0A0E0B0E084839583A683B7838DE2DC
:1010A00091E091838083089581E692E00E94440854
:1010B0000895CF93DF9300D01F92CDB7DEB741E004
:1010C0006DE0CE0101960E944A060E94430526E08B
:1010D00040E855E260E070E086E491E00E94210281
:1010E00069E371E086E491E00E94BC03CE010196C1
:1010F0000E945A0664EF71E080E090E00E941705BC
:10110000F5CFA1E21A2EAA1BBB1BFD010DC0AA1F21
:10111000BB1FEE1FFF1FA217B307E407F50720F060
:10112000A21BB30BE40BF50B661F771F881F991FDB
:101130001A9469F760957095809590959B01AC0124
:10114000BD01CF010895EE0FFF1F0590F491E02D32
:061150000994F894FFCFA2
:101156005804580400000000D201630358017201CC
:101166006401B0010000000016030D0A006E616EF6
:1011760000696E66006F766600000000001308E3E3
:1011860007B707BF07D307E20748656C6C6F2057A0
:061196006F726C642E0074
:00000001FF
